{
  "contractName": "Fund",
  "abi": [
    {
      "constant": false,
      "inputs": [
        {
          "internalType": "string",
          "name": "_nickname",
          "type": "string"
        },
        {
          "internalType": "string",
          "name": "_intro",
          "type": "string"
        }
      ],
      "name": "add_user",
      "outputs": [],
      "payable": false,
      "stateMutability": "nonpayable",
      "type": "function"
    },
    {
      "constant": false,
      "inputs": [
        {
          "internalType": "string",
          "name": "_intro",
          "type": "string"
        }
      ],
      "name": "user_change_intro",
      "outputs": [],
      "payable": false,
      "stateMutability": "nonpayable",
      "type": "function"
    },
    {
      "constant": false,
      "inputs": [
        {
          "internalType": "string",
          "name": "_title",
          "type": "string"
        },
        {
          "internalType": "bool",
          "name": "agree",
          "type": "bool"
        }
      ],
      "name": "user_voting",
      "outputs": [],
      "payable": false,
      "stateMutability": "nonpayable",
      "type": "function"
    },
    {
      "constant": true,
      "inputs": [
        {
          "internalType": "address",
          "name": "_address",
          "type": "address"
        }
      ],
      "name": "view_user_exist_or_not",
      "outputs": [
        {
          "internalType": "bool",
          "name": "",
          "type": "bool"
        }
      ],
      "payable": false,
      "stateMutability": "view",
      "type": "function"
    },
    {
      "constant": true,
      "inputs": [
        {
          "internalType": "address",
          "name": "_address",
          "type": "address"
        },
        {
          "internalType": "string",
          "name": "_title",
          "type": "string"
        }
      ],
      "name": "view_user_voting_state",
      "outputs": [
        {
          "internalType": "uint256",
          "name": "",
          "type": "uint256"
        }
      ],
      "payable": false,
      "stateMutability": "view",
      "type": "function"
    },
    {
      "constant": false,
      "inputs": [
        {
          "internalType": "string",
          "name": "_title",
          "type": "string"
        },
        {
          "internalType": "string",
          "name": "_topic",
          "type": "string"
        },
        {
          "internalType": "string",
          "name": "_intro",
          "type": "string"
        },
        {
          "internalType": "uint256",
          "name": "_target_money",
          "type": "uint256"
        },
        {
          "internalType": "uint256",
          "name": "_deadline",
          "type": "uint256"
        }
      ],
      "name": "add_project",
      "outputs": [],
      "payable": false,
      "stateMutability": "nonpayable",
      "type": "function"
    },
    {
      "constant": false,
      "inputs": [
        {
          "internalType": "string",
          "name": "_title",
          "type": "string"
        }
      ],
      "name": "recieve_value_to_project",
      "outputs": [],
      "payable": true,
      "stateMutability": "payable",
      "type": "function"
    },
    {
      "constant": true,
      "inputs": [],
      "name": "view_project_list_length",
      "outputs": [
        {
          "internalType": "uint256",
          "name": "",
          "type": "uint256"
        }
      ],
      "payable": false,
      "stateMutability": "view",
      "type": "function"
    },
    {
      "constant": true,
      "inputs": [
        {
          "internalType": "uint256",
          "name": "i",
          "type": "uint256"
        }
      ],
      "name": "view_project_list",
      "outputs": [
        {
          "internalType": "string",
          "name": "",
          "type": "string"
        },
        {
          "internalType": "string",
          "name": "",
          "type": "string"
        },
        {
          "internalType": "string",
          "name": "",
          "type": "string"
        },
        {
          "internalType": "uint256",
          "name": "",
          "type": "uint256"
        },
        {
          "internalType": "uint256",
          "name": "",
          "type": "uint256"
        },
        {
          "internalType": "uint256",
          "name": "",
          "type": "uint256"
        },
        {
          "internalType": "uint256",
          "name": "",
          "type": "uint256"
        }
      ],
      "payable": false,
      "stateMutability": "view",
      "type": "function"
    },
    {
      "constant": false,
      "inputs": [
        {
          "internalType": "string",
          "name": "_title",
          "type": "string"
        },
        {
          "internalType": "string",
          "name": "_msg",
          "type": "string"
        }
      ],
      "name": "comment_on_board",
      "outputs": [],
      "payable": false,
      "stateMutability": "nonpayable",
      "type": "function"
    },
    {
      "constant": true,
      "inputs": [
        {
          "internalType": "string",
          "name": "_title",
          "type": "string"
        }
      ],
      "name": "view_comment_length",
      "outputs": [
        {
          "internalType": "uint256",
          "name": "",
          "type": "uint256"
        }
      ],
      "payable": false,
      "stateMutability": "view",
      "type": "function"
    },
    {
      "constant": true,
      "inputs": [
        {
          "internalType": "string",
          "name": "_title",
          "type": "string"
        },
        {
          "internalType": "uint256",
          "name": "i",
          "type": "uint256"
        }
      ],
      "name": "view_comment",
      "outputs": [
        {
          "internalType": "string",
          "name": "",
          "type": "string"
        },
        {
          "internalType": "address",
          "name": "",
          "type": "address"
        }
      ],
      "payable": false,
      "stateMutability": "view",
      "type": "function"
    },
    {
      "constant": true,
      "inputs": [
        {
          "internalType": "string",
          "name": "_title",
          "type": "string"
        }
      ],
      "name": "view_project_current_money",
      "outputs": [
        {
          "internalType": "uint256",
          "name": "",
          "type": "uint256"
        }
      ],
      "payable": false,
      "stateMutability": "view",
      "type": "function"
    },
    {
      "constant": true,
      "inputs": [
        {
          "internalType": "uint256",
          "name": "i",
          "type": "uint256"
        }
      ],
      "name": "view_project_stop",
      "outputs": [
        {
          "internalType": "bool",
          "name": "",
          "type": "bool"
        }
      ],
      "payable": false,
      "stateMutability": "view",
      "type": "function"
    },
    {
      "constant": true,
      "inputs": [
        {
          "internalType": "string",
          "name": "_title",
          "type": "string"
        }
      ],
      "name": "view_project_voting_end",
      "outputs": [
        {
          "internalType": "bool",
          "name": "",
          "type": "bool"
        }
      ],
      "payable": false,
      "stateMutability": "view",
      "type": "function"
    },
    {
      "constant": false,
      "inputs": [
        {
          "internalType": "string",
          "name": "_title",
          "type": "string"
        }
      ],
      "name": "start_voting",
      "outputs": [],
      "payable": false,
      "stateMutability": "nonpayable",
      "type": "function"
    },
    {
      "constant": false,
      "inputs": [
        {
          "internalType": "string",
          "name": "_title",
          "type": "string"
        }
      ],
      "name": "stop_voting",
      "outputs": [],
      "payable": false,
      "stateMutability": "nonpayable",
      "type": "function"
    },
    {
      "constant": true,
      "inputs": [
        {
          "internalType": "string",
          "name": "_title",
          "type": "string"
        }
      ],
      "name": "start_voting_or_not",
      "outputs": [
        {
          "internalType": "bool",
          "name": "",
          "type": "bool"
        }
      ],
      "payable": false,
      "stateMutability": "view",
      "type": "function"
    }
  ],
  "bytecode": "0x608060405234801561001057600080fd5b50614f5e806100206000396000f3fe6080604052600436106101095760003560e01c80637754a8c811610095578063bb2c9b3a11610064578063bb2c9b3a14610cc7578063c7740b7114610da3578063cb3b352314610e5e578063cfe31d8314611006578063dd0f2d151461109857610109565b80637754a8c81461081057806382c1672a14610a1a578063b5a36f1a14610aa0578063baca3f1314610bff57610109565b80632f436485116100dc5780632f43648514610360578063400462fa1461038b57806365c6f5fd146104ea578063715a4c58146105b257806371bbd3421461073057610109565b80631568d3b01461010e5780631761b4b51461016157806328457ec51461023d5780632d1879b4146102a6575b600080fd5b34801561011a57600080fd5b506101476004803603602081101561013157600080fd5b8101908080359060200190929190505050611178565b604051808215151515815260200191505060405180910390f35b34801561016d57600080fd5b506102276004803603602081101561018457600080fd5b81019080803590602001906401000000008111156101a157600080fd5b8201836020820111156101b357600080fd5b803590602001918460018302840111640100000000831117156101d557600080fd5b91908080601f016020809104026020016040519081016040528093929190818152602001838380828437600081840152601f19601f820116905080830192505050505050509192919290505050611219565b6040518082815260200191505060405180910390f35b34801561024957600080fd5b5061028c6004803603602081101561026057600080fd5b81019080803573ffffffffffffffffffffffffffffffffffffffff169060200190929190505050611295565b604051808215151515815260200191505060405180910390f35b3480156102b257600080fd5b5061034a600480360360408110156102c957600080fd5b81019080803573ffffffffffffffffffffffffffffffffffffffff1690602001909291908035906020019064010000000081111561030657600080fd5b82018360208201111561031857600080fd5b8035906020019184600183028401116401000000008311171561033a57600080fd5b90919293919293905050506112eb565b6040518082815260200191505060405180910390f35b34801561036c57600080fd5b5061037561135b565b6040518082815260200191505060405180910390f35b34801561039757600080fd5b506104e8600480360360408110156103ae57600080fd5b81019080803590602001906401000000008111156103cb57600080fd5b8201836020820111156103dd57600080fd5b803590602001918460018302840111640100000000831117156103ff57600080fd5b91908080601f016020809104026020016040519081016040528093929190818152602001838380828437600081840152601f19601f8201169050808301925050505050505091929192908035906020019064010000000081111561046257600080fd5b82018360208201111561047457600080fd5b8035906020019184600183028401116401000000008311171561049657600080fd5b91908080601f016020809104026020016040519081016040528093929190818152602001838380828437600081840152601f19601f820116905080830192505050505050509192919290505050611368565b005b3480156104f657600080fd5b506105b06004803603602081101561050d57600080fd5b810190808035906020019064010000000081111561052a57600080fd5b82018360208201111561053c57600080fd5b8035906020019184600183028401116401000000008311171561055e57600080fd5b91908080601f016020809104026020016040519081016040528093929190818152602001838380828437600081840152601f19601f82011690508083019250505050505050919291929050505061156b565b005b3480156105be57600080fd5b50610682600480360360408110156105d557600080fd5b81019080803590602001906401000000008111156105f257600080fd5b82018360208201111561060457600080fd5b8035906020019184600183028401116401000000008311171561062657600080fd5b91908080601f016020809104026020016040519081016040528093929190818152602001838380828437600081840152601f19601f82011690508083019250505050505050919291929080359060200190929190505050611721565b60405180806020018373ffffffffffffffffffffffffffffffffffffffff1673ffffffffffffffffffffffffffffffffffffffff168152602001828103825284818151815260200191508051906020019080838360005b838110156106f45780820151818401526020810190506106d9565b50505050905090810190601f1680156107215780820380516001836020036101000a031916815260200191505b50935050505060405180910390f35b34801561073c57600080fd5b506107f66004803603602081101561075357600080fd5b810190808035906020019064010000000081111561077057600080fd5b82018360208201111561078257600080fd5b803590602001918460018302840111640100000000831117156107a457600080fd5b91908080601f016020809104026020016040519081016040528093929190818152602001838380828437600081840152601f19601f8201169050808301925050505050505091929192905050506118f5565b604051808215151515815260200191505060405180910390f35b34801561081c57600080fd5b50610a18600480360360a081101561083357600080fd5b810190808035906020019064010000000081111561085057600080fd5b82018360208201111561086257600080fd5b8035906020019184600183028401116401000000008311171561088457600080fd5b91908080601f016020809104026020016040519081016040528093929190818152602001838380828437600081840152601f19601f820116905080830192505050505050509192919290803590602001906401000000008111156108e757600080fd5b8201836020820111156108f957600080fd5b8035906020019184600183028401116401000000008311171561091b57600080fd5b91908080601f016020809104026020016040519081016040528093929190818152602001838380828437600081840152601f19601f8201169050808301925050505050505091929192908035906020019064010000000081111561097e57600080fd5b82018360208201111561099057600080fd5b803590602001918460018302840111640100000000831117156109b257600080fd5b91908080601f016020809104026020016040519081016040528093929190818152602001838380828437600081840152601f19601f8201169050808301925050505050505091929192908035906020019092919080359060200190929190505050611a59565b005b348015610a2657600080fd5b50610a9e60048036036020811015610a3d57600080fd5b8101908080359060200190640100000000811115610a5a57600080fd5b820183602082011115610a6c57600080fd5b80359060200191846001830284011164010000000083111715610a8e57600080fd5b9091929391929390505050611e8c565b005b348015610aac57600080fd5b50610bfd60048036036040811015610ac357600080fd5b8101908080359060200190640100000000811115610ae057600080fd5b820183602082011115610af257600080fd5b80359060200191846001830284011164010000000083111715610b1457600080fd5b91908080601f016020809104026020016040519081016040528093929190818152602001838380828437600081840152601f19601f82011690508083019250505050505050919291929080359060200190640100000000811115610b7757600080fd5b820183602082011115610b8957600080fd5b80359060200191846001830284011164010000000083111715610bab57600080fd5b91908080601f016020809104026020016040519081016040528093929190818152602001838380828437600081840152601f19601f820116905080830192505050505050509192919290505050611efd565b005b348015610c0b57600080fd5b50610cc560048036036020811015610c2257600080fd5b8101908080359060200190640100000000811115610c3f57600080fd5b820183602082011115610c5157600080fd5b80359060200191846001830284011164010000000083111715610c7357600080fd5b91908080601f016020809104026020016040519081016040528093929190818152602001838380828437600081840152601f19601f820116905080830192505050505050509192919290505050612080565b005b348015610cd357600080fd5b50610d8d60048036036020811015610cea57600080fd5b8101908080359060200190640100000000811115610d0757600080fd5b820183602082011115610d1957600080fd5b80359060200191846001830284011164010000000083111715610d3b57600080fd5b91908080601f016020809104026020016040519081016040528093929190818152602001838380828437600081840152601f19601f820116905080830192505050505050509192919290505050612940565b6040518082815260200191505060405180910390f35b610e5c60048036036020811015610db957600080fd5b8101908080359060200190640100000000811115610dd657600080fd5b820183602082011115610de857600080fd5b80359060200191846001830284011164010000000083111715610e0a57600080fd5b91908080601f016020809104026020016040519081016040528093929190818152602001838380828437600081840152601f19601f8201169050808301925050505050505091929192905050506129b6565b005b348015610e6a57600080fd5b50610e9760048036036020811015610e8157600080fd5b8101908080359060200190929190505050613618565b6040518080602001806020018060200188815260200187815260200186815260200185815260200184810384528b818151815260200191508051906020019080838360005b83811015610ef7578082015181840152602081019050610edc565b50505050905090810190601f168015610f245780820380516001836020036101000a031916815260200191505b5084810383528a818151815260200191508051906020019080838360005b83811015610f5d578082015181840152602081019050610f42565b50505050905090810190601f168015610f8a5780820380516001836020036101000a031916815260200191505b50848103825289818151815260200191508051906020019080838360005b83811015610fc3578082015181840152602081019050610fa8565b50505050905090810190601f168015610ff05780820380516001836020036101000a031916815260200191505b509a505050505050505050505060405180910390f35b34801561101257600080fd5b506110966004803603604081101561102957600080fd5b810190808035906020019064010000000081111561104657600080fd5b82018360208201111561105857600080fd5b8035906020019184600183028401116401000000008311171561107a57600080fd5b9091929391929390803515159060200190929190505050613bda565b005b3480156110a457600080fd5b5061115e600480360360208110156110bb57600080fd5b81019080803590602001906401000000008111156110d857600080fd5b8201836020820111156110ea57600080fd5b8035906020019184600183028401116401000000008311171561110c57600080fd5b91908080601f016020809104026020016040519081016040528093929190818152602001838380828437600081840152601f19601f820116905080830192505050505050509192919290505050613d98565b604051808215151515815260200191505060405180910390f35b600060046005838154811061118957fe5b9060005260206000200160405180828054600181600116156101000203166002900480156111ee5780601f106111cc5761010080835404028352918201916111ee565b820191906000526020600020905b8154815290600101906020018083116111da575b50509150509081526020016040518091039020600a0160009054906101000a900460ff169050919050565b60006004826040518082805190602001908083835b60208310611251578051825260208201915060208101905060208303925061122e565b6001836020036101000a0380198251168184511680821785525050505050509050019150509081526020016040518091039020600b01600001805490509050919050565b6000600160008373ffffffffffffffffffffffffffffffffffffffff1673ffffffffffffffffffffffffffffffffffffffff16815260200190815260200160002060009054906101000a900460ff169050919050565b6000600360008573ffffffffffffffffffffffffffffffffffffffff1673ffffffffffffffffffffffffffffffffffffffff168152602001908152602001600020838360405180838380828437808301925050509250505090815260200160405180910390205490509392505050565b6000600580549050905090565b6113706149b6565b33816000019073ffffffffffffffffffffffffffffffffffffffff16908173ffffffffffffffffffffffffffffffffffffffff16815250508281602001819052508181604001819052506000819080600181540180825580915050906001820390600052602060002090600602016000909192909190915060008201518160000160006101000a81548173ffffffffffffffffffffffffffffffffffffffff021916908373ffffffffffffffffffffffffffffffffffffffff160217905550602082015181600101908051906020019061144b929190614a02565b506040820151816002019080519060200190611468929190614a02565b506060820151816003019080519060200190611485929190614a82565b5060808201518160040190805190602001906114a2929190614a82565b5060a08201518160050190805190602001906114bf929190614ae2565b50505050600160008054905003600260003373ffffffffffffffffffffffffffffffffffffffff1673ffffffffffffffffffffffffffffffffffffffff1681526020019081526020016000208190555060018060003373ffffffffffffffffffffffffffffffffffffffff1673ffffffffffffffffffffffffffffffffffffffff16815260200190815260200160002060006101000a81548160ff021916908315150217905550505050565b60008090505b6004826040518082805190602001908083835b602083106115a75780518252602082019150602081019050602083039250611584565b6001836020036101000a0380198251168184511680821785525050505050509050019150509081526020016040518091039020600801805490508110156116a0576116936004836040518082805190602001908083835b6020831061162157805182526020820191506020810190506020830392506115fe565b6001836020036101000a0380198251168184511680821785525050505050509050019150509081526020016040518091039020600801828154811061166257fe5b9060005260206000200160009054906101000a900473ffffffffffffffffffffffffffffffffffffffff1683613e1b565b8080600101915050611571565b620697806004836040518082805190602001908083835b602083106116da57805182526020820191506020810190506020830392506116b7565b6001836020036101000a0380198251168184511680821785525050505050509050019150509081526020016040518091039020600701600082825401925050819055505050565b606060006004846040518082805190602001908083835b6020831061175b5780518252602082019150602081019050602083039250611738565b6001836020036101000a0380198251168184511680821785525050505050509050019150509081526020016040518091039020600b01600001838154811061179f57fe5b906000526020600020016004856040518082805190602001908083835b602083106117df57805182526020820191506020810190506020830392506117bc565b6001836020036101000a0380198251168184511680821785525050505050509050019150509081526020016040518091039020600b01600101848154811061182357fe5b9060005260206000200160009054906101000a900473ffffffffffffffffffffffffffffffffffffffff16818054600181600116156101000203166002900480601f0160208091040260200160405190810160405280929190818152602001828054600181600116156101000203166002900480156118e35780601f106118b8576101008083540402835291602001916118e3565b820191906000526020600020905b8154815290600101906020018083116118c657829003601f168201915b50505050509150915091509250929050565b600080600360006004856040518082805190602001908083835b60208310611932578051825260208201915060208101905060208303925061190f565b6001836020036101000a038019825116818451168082178552505050505050905001915050908152602001604051809103902060080160008154811061197457fe5b9060005260206000200160009054906101000a900473ffffffffffffffffffffffffffffffffffffffff1673ffffffffffffffffffffffffffffffffffffffff1673ffffffffffffffffffffffffffffffffffffffff168152602001908152602001600020836040518082805190602001908083835b60208310611a0d57805182526020820191506020810190506020830392506119ea565b6001836020036101000a03801982511681845116808217855250505050505090500191505090815260200160405180910390205414611a4f5760019050611a54565b600090505b919050565b60006004866040518082805190602001908083835b60208310611a915780518252602082019150602081019050602083039250611a6e565b6001836020036101000a03801982511681845116808217855250505050505090500191505090815260200160405180910390206004015414611b1e576040517f08c379a0000000000000000000000000000000000000000000000000000000008152600401808060200182810382526025815260200180614f056025913960400191505060405180910390fd5b60008211611b6f576040517f08c379a0000000000000000000000000000000000000000000000000000000008152600401808060200182810382526000815260200160200191505060405180910390fd5b600160003373ffffffffffffffffffffffffffffffffffffffff1673ffffffffffffffffffffffffffffffffffffffff16815260200190815260200160002060009054906101000a900460ff16611be957611be86040518060200160405280600081525060405180602001604052806000815250611368565b5b611bf1614b2f565b85816000018190525084816040018190525083816020018190525082816080018181525050818160e0018181525050600081610140019015159081151581525050600081610160019015159081151581525050611c4e3387613fe7565b806004876040518082805190602001908083835b60208310611c855780518252602082019150602081019050602083039250611c62565b6001836020036101000a03801982511681845116808217855250505050505090500191505090815260200160405180910390206000820151816000019080519060200190611cd4929190614a02565b506020820151816001019080519060200190611cf1929190614a02565b506040820151816002019080519060200190611d0e929190614a02565b5060608201518160030160006101000a81548173ffffffffffffffffffffffffffffffffffffffff021916908373ffffffffffffffffffffffffffffffffffffffff1602179055506080820151816004015560a0820151816005015560c0820151816006015560e08201518160070155610100820151816008019080519060200190611d9b929190614bb7565b50610120820151816009019080519060200190611db9929190614ae2565b5061014082015181600a0160006101000a81548160ff02191690831515021790555061016082015181600a0160016101000a81548160ff02191690831515021790555061018082015181600b016000820151816000019080519060200190611e22929190614a82565b506020820151816001019080519060200190611e3f929190614c41565b5050509050506005869080600181540180825580915050906001820390600052602060002001600090919290919091509080519060200190611e82929190614ccb565b5050505050505050565b81816000600260003373ffffffffffffffffffffffffffffffffffffffff1673ffffffffffffffffffffffffffffffffffffffff1681526020019081526020016000205481548110611eda57fe5b90600052602060002090600602016002019190611ef8929190614d4b565b505050565b6004826040518082805190602001908083835b60208310611f335780518252602082019150602081019050602083039250611f10565b6001836020036101000a0380198251168184511680821785525050505050509050019150509081526020016040518091039020600b01600001819080600181540180825580915050906001820390600052602060002001600090919290919091509080519060200190611fa7929190614ccb565b50506004826040518082805190602001908083835b60208310611fdf5780518252602082019150602081019050602083039250611fbc565b6001836020036101000a0380198251168184511680821785525050505050509050019150509081526020016040518091039020600b016001013390806001815401808255809150509060018203906000526020600020016000909192909190916101000a81548173ffffffffffffffffffffffffffffffffffffffff021916908373ffffffffffffffffffffffffffffffffffffffff160217905550505050565b600080905060008090506000809050600080905060008090505b6004866040518082805190602001908083835b602083106120d057805182526020820191506020810190506020830392506120ad565b6001836020036101000a0380198251168184511680821785525050505050509050019150509081526020016040518091039020600801805490508110156125dc576002600360006004896040518082805190602001908083835b6020831061214d578051825260208201915060208101905060208303925061212a565b6001836020036101000a0380198251168184511680821785525050505050509050019150509081526020016040518091039020600801848154811061218e57fe5b9060005260206000200160009054906101000a900473ffffffffffffffffffffffffffffffffffffffff1673ffffffffffffffffffffffffffffffffffffffff1673ffffffffffffffffffffffffffffffffffffffff168152602001908152602001600020876040518082805190602001908083835b602083106122275780518252602082019150602081019050602083039250612204565b6001836020036101000a0380198251168184511680821785525050505050509050019150509081526020016040518091039020541415612372576004866040518082805190602001908083835b602083106122975780518252602082019150602081019050602083039250612274565b6001836020036101000a038019825116818451168082178552505050505050905001915050908152602001604051809103902060090181815481106122d857fe5b9060005260206000200154840193506004866040518082805190602001908083835b6020831061231d57805182526020820191506020810190506020830392506122fa565b6001836020036101000a0380198251168184511680821785525050505050509050019150509081526020016040518091039020600901818154811061235e57fe5b9060005260206000200154850194506125cf565b60038060006004896040518082805190602001908083835b602083106123ad578051825260208201915060208101905060208303925061238a565b6001836020036101000a038019825116818451168082178552505050505050905001915050908152602001604051809103902060080184815481106123ee57fe5b9060005260206000200160009054906101000a900473ffffffffffffffffffffffffffffffffffffffff1673ffffffffffffffffffffffffffffffffffffffff1673ffffffffffffffffffffffffffffffffffffffff168152602001908152602001600020876040518082805190602001908083835b602083106124875780518252602082019150602081019050602083039250612464565b6001836020036101000a03801982511681845116808217855250505050505090500191505090815260200160405180910390205414156125ce576004866040518082805190602001908083835b602083106124f757805182526020820191506020810190506020830392506124d4565b6001836020036101000a0380198251168184511680821785525050505050509050019150509081526020016040518091039020600901818154811061253857fe5b9060005260206000200154830192506004866040518082805190602001908083835b6020831061257d578051825260208201915060208101905060208303925061255a565b6001836020036101000a038019825116818451168082178552505050505050905001915050908152602001604051809103902060090181815481106125be57fe5b9060005260206000200154850194505b5b808060010191505061209a565b82841180156126625750600480876040518082805190602001908083835b6020831061261d57805182526020820191506020810190506020830392506125fa565b6001836020036101000a0380198251168184511680821785525050505050509050019150509081526020016040518091039020600801805490508161265e57fe5b0485115b156126eb576126e286621e84806004896040518082805190602001908083835b602083106126a55780518252602082019150602081019050602083039250612682565b6001836020036101000a03801982511681845116808217855250505050505090500191505090815260200160405180910390206004015403614085565b600491506126f9565b6126f48661424c565b600591505b600090505b6004866040518082805190602001908083835b602083106127345780518252602082019150602081019050602083039250612711565b6001836020036101000a03801982511681845116808217855250505050505090500191505090815260200160405180910390206008018054905081101561282e576128216004876040518082805190602001908083835b602083106127ae578051825260208201915060208101905060208303925061278b565b6001836020036101000a038019825116818451168082178552505050505050905001915050908152602001604051809103902060080182815481106127ef57fe5b9060005260206000200160009054906101000a900473ffffffffffffffffffffffffffffffffffffffff1687846144ca565b80806001019150506126fe565b60016004876040518082805190602001908083835b602083106128665780518252602082019150602081019050602083039250612843565b6001836020036101000a0380198251168184511680821785525050505050509050019150509081526020016040518091039020600a0160016101000a81548160ff02191690831515021790555060016004876040518082805190602001908083835b602083106128eb57805182526020820191506020810190506020830392506128c8565b6001836020036101000a0380198251168184511680821785525050505050509050019150509081526020016040518091039020600a0160006101000a81548160ff021916908315150217905550505050505050565b60006004826040518082805190602001908083835b602083106129785780518252602082019150602081019050602083039250612955565b6001836020036101000a0380198251168184511680821785525050505050509050019150509081526020016040518091039020600501549050919050565b6004816040518082805190602001908083835b602083106129ec57805182526020820191506020810190506020830392506129c9565b6001836020036101000a0380198251168184511680821785525050505050509050019150509081526020016040518091039020600a0160009054906101000a900460ff1615612aa3576040517f08c379a00000000000000000000000000000000000000000000000000000000081526004018080602001828103825260208152602001807f546869732070726f6a6563742073746f702072656365697665206d6f6e65792181525060200191505060405180910390fd5b600160003373ffffffffffffffffffffffffffffffffffffffff1673ffffffffffffffffffffffffffffffffffffffff16815260200190815260200160002060009054906101000a900460ff16612b1d57612b1c6040518060200160405280600081525060405180602001604052806000815250611368565b5b346004826040518082805190602001908083835b60208310612b545780518252602082019150602081019050602083039250612b31565b6001836020036101000a038019825116818451168082178552505050505050905001915050908152602001604051809103902060050160008282540192505081905550346004826040518082805190602001908083835b60208310612bce5780518252602082019150602081019050602083039250612bab565b6001836020036101000a0380198251168184511680821785525050505050509050019150509081526020016040518091039020600601600082825401925050819055506000806000809050600092505b6004846040518082805190602001908083835b60208310612c545780518252602082019150602081019050602083039250612c31565b6001836020036101000a038019825116818451168082178552505050505050905001915050908152602001604051809103902060080180549050831015612d7f576004846040518082805190602001908083835b60208310612ccb5780518252602082019150602081019050602083039250612ca8565b6001836020036101000a03801982511681845116808217855250505050505090500191505090815260200160405180910390206008018381548110612d0c57fe5b9060005260206000200160009054906101000a900473ffffffffffffffffffffffffffffffffffffffff1673ffffffffffffffffffffffffffffffffffffffff163373ffffffffffffffffffffffffffffffffffffffff161415612d7257600190508291505b8280600101935050612c1e565b80612f60576004846040518082805190602001908083835b60208310612dba5780518252602082019150602081019050602083039250612d97565b6001836020036101000a03801982511681845116808217855250505050505090500191505090815260200160405180910390206008013390806001815401808255809150509060018203906000526020600020016000909192909190916101000a81548173ffffffffffffffffffffffffffffffffffffffff021916908373ffffffffffffffffffffffffffffffffffffffff160217905550506004846040518082805190602001908083835b60208310612e8a5780518252602082019150602081019050602083039250612e67565b6001836020036101000a038019825116818451168082178552505050505050905001915050908152602001604051809103902060090134908060018154018082558091505090600182039060005260206000200160009091929091909150555060016004856040518082805190602001908083835b60208310612f225780518252602082019150602081019050602083039250612eff565b6001836020036101000a0380198251168184511680821785525050505050509050019150509081526020016040518091039020600801805490500391505b6004846040518082805190602001908083835b60208310612f965780518252602082019150602081019050602083039250612f73565b6001836020036101000a0380198251168184511680821785525050505050509050019150509081526020016040518091039020600401546004856040518082805190602001908083835b602083106130035780518252602082019150602081019050602083039250612fe0565b6001836020036101000a03801982511681845116808217855250505050505090500191505090815260200160405180910390206006015410613586576004846040518082805190602001908083835b602083106130755780518252602082019150602081019050602083039250613052565b6001836020036101000a0380198251168184511680821785525050505050509050019150509081526020016040518091039020600401546004856040518082805190602001908083835b602083106130e257805182526020820191506020810190506020830392506130bf565b6001836020036101000a038019825116818451168082178552505050505050905001915050908152602001604051809103902060060154036004856040518082805190602001908083835b60208310613150578051825260208201915060208101905060208303925061312d565b6001836020036101000a0380198251168184511680821785525050505050509050019150509081526020016040518091039020600501600082825403925050819055506004846040518082805190602001908083835b602083106131c957805182526020820191506020810190506020830392506131a6565b6001836020036101000a0380198251168184511680821785525050505050509050019150509081526020016040518091039020600401546004856040518082805190602001908083835b602083106132365780518252602082019150602081019050602083039250613213565b6001836020036101000a038019825116818451168082178552505050505050905001915050908152602001604051809103902060060154036004856040518082805190602001908083835b602083106132a45780518252602082019150602081019050602083039250613281565b6001836020036101000a038019825116818451168082178552505050505050905001915050908152602001604051809103902060090183815481106132e557fe5b906000526020600020016000828254039250508190555060003390508073ffffffffffffffffffffffffffffffffffffffff166108fc6004876040518082805190602001908083835b60208310613351578051825260208201915060208101905060208303925061332e565b6001836020036101000a0380198251168184511680821785525050505050509050019150509081526020016040518091039020600401546004886040518082805190602001908083835b602083106133be578051825260208201915060208101905060208303925061339b565b6001836020036101000a038019825116818451168082178552505050505050905001915050908152602001604051809103902060060154039081150290604051600060405180830381858888f19350505050158015613421573d6000803e3d6000fd5b506004856040518082805190602001908083835b602083106134585780518252602082019150602081019050602083039250613435565b6001836020036101000a0380198251168184511680821785525050505050509050019150509081526020016040518091039020600401546004866040518082805190602001908083835b602083106134c557805182526020820191506020810190506020830392506134a2565b6001836020036101000a03801982511681845116808217855250505050505090500191505090815260200160405180910390206006018190555060016004866040518082805190602001908083835b602083106135375780518252602082019150602081019050602083039250613514565b6001836020036101000a0380198251168184511680821785525050505050509050019150509081526020016040518091039020600a0160006101000a81548160ff021916908315150217905550505b61361233856004876040518082805190602001908083835b602083106135c1578051825260208201915060208101905060208303925061359e565b6001836020036101000a0380198251168184511680821785525050505050509050019150509081526020016040518091039020600901858154811061360257fe5b906000526020600020015461457a565b50505050565b606080606060008060008060046005898154811061363257fe5b9060005260206000200160405180828054600181600116156101000203166002900480156136975780601f10613675576101008083540402835291820191613697565b820191906000526020600020905b815481529060010190602001808311613683575b50509150509081526020016040518091039020600001600460058a815481106136bc57fe5b9060005260206000200160405180828054600181600116156101000203166002900480156137215780601f106136ff576101008083540402835291820191613721565b820191906000526020600020905b81548152906001019060200180831161370d575b50509150509081526020016040518091039020600101600460058b8154811061374657fe5b9060005260206000200160405180828054600181600116156101000203166002900480156137ab5780601f106137895761010080835404028352918201916137ab565b820191906000526020600020905b815481529060010190602001808311613797575b50509150509081526020016040518091039020600201600460058c815481106137d057fe5b9060005260206000200160405180828054600181600116156101000203166002900480156138355780601f10613813576101008083540402835291820191613835565b820191906000526020600020905b815481529060010190602001808311613821575b5050915050908152602001604051809103902060050154600460058d8154811061385b57fe5b9060005260206000200160405180828054600181600116156101000203166002900480156138c05780601f1061389e5761010080835404028352918201916138c0565b820191906000526020600020905b8154815290600101906020018083116138ac575b5050915050908152602001604051809103902060060154600460058e815481106138e657fe5b90600052602060002001604051808280546001816001161561010002031660029004801561394b5780601f1061392957610100808354040283529182019161394b565b820191906000526020600020905b815481529060010190602001808311613937575b5050915050908152602001604051809103902060040154600460058f8154811061397157fe5b9060005260206000200160405180828054600181600116156101000203166002900480156139d65780601f106139b45761010080835404028352918201916139d6565b820191906000526020600020905b8154815290600101906020018083116139c2575b5050915050908152602001604051809103902060070154868054600181600116156101000203166002900480601f016020809104026020016040519081016040528092919081815260200182805460018160011615610100020316600290048015613a825780601f10613a5757610100808354040283529160200191613a82565b820191906000526020600020905b815481529060010190602001808311613a6557829003601f168201915b50505050509650858054600181600116156101000203166002900480601f016020809104026020016040519081016040528092919081815260200182805460018160011615610100020316600290048015613b1e5780601f10613af357610100808354040283529160200191613b1e565b820191906000526020600020905b815481529060010190602001808311613b0157829003601f168201915b50505050509550848054600181600116156101000203166002900480601f016020809104026020016040519081016040528092919081815260200182805460018160011615610100020316600290048015613bba5780601f10613b8f57610100808354040283529160200191613bba565b820191906000526020600020905b815481529060010190602001808311613b9d57829003601f168201915b505050505094509650965096509650965096509650919395979092949650565b6001600360003373ffffffffffffffffffffffffffffffffffffffff1673ffffffffffffffffffffffffffffffffffffffff168152602001908152602001600020848460405180838380828437808301925050509250505090815260200160405180910390205414613cb4576040517f08c379a00000000000000000000000000000000000000000000000000000000081526004018080602001828103825260158152602001807f4572726f723a20616c726561647920766f74656421000000000000000000000081525060200191505060405180910390fd5b8015613d29576002600360003373ffffffffffffffffffffffffffffffffffffffff1673ffffffffffffffffffffffffffffffffffffffff1681526020019081526020016000208484604051808383808284378083019250505092505050908152602001604051809103902081905550613d93565b60038060003373ffffffffffffffffffffffffffffffffffffffff1673ffffffffffffffffffffffffffffffffffffffff16815260200190815260200160002084846040518083838082843780830192505050925050509081526020016040518091039020819055505b505050565b60006004826040518082805190602001908083835b60208310613dd05780518252602082019150602081019050602083039250613dad565b6001836020036101000a0380198251168184511680821785525050505050509050019150509081526020016040518091039020600a0160019054906101000a900460ff169050919050565b6000600360008473ffffffffffffffffffffffffffffffffffffffff1673ffffffffffffffffffffffffffffffffffffffff168152602001908152602001600020826040518082805190602001908083835b60208310613e905780518252602082019150602081019050602083039250613e6d565b6001836020036101000a03801982511681845116808217855250505050505090500191505090815260200160405180910390205414613f37576040517f08c379a00000000000000000000000000000000000000000000000000000000081526004018080602001828103825260168152602001807f4572726f723a20616c726561647920737461727465640000000000000000000081525060200191505060405180910390fd5b6001600360008473ffffffffffffffffffffffffffffffffffffffff1673ffffffffffffffffffffffffffffffffffffffff168152602001908152602001600020826040518082805190602001908083835b60208310613fac5780518252602082019150602081019050602083039250613f89565b6001836020036101000a0380198251168184511680821785525050505050509050019150509081526020016040518091039020819055505050565b6000600260008473ffffffffffffffffffffffffffffffffffffffff1673ffffffffffffffffffffffffffffffffffffffff168152602001908152602001600020548154811061403357fe5b906000526020600020906006020160030181908060018154018082558091505090600182039060005260206000200160009091929091909150908051906020019061407f929190614ccb565b50505050565b804710156140fb576040517f08c379a00000000000000000000000000000000000000000000000000000000081526004018080602001828103825260068152602001807f6572726f7221000000000000000000000000000000000000000000000000000081525060200191505060405180910390fd5b6004826040518082805190602001908083835b60208310614131578051825260208201915060208101905060208303925061410e565b6001836020036101000a038019825116818451168082178552505050505050905001915050908152602001604051809103902060030160009054906101000a900473ffffffffffffffffffffffffffffffffffffffff1673ffffffffffffffffffffffffffffffffffffffff166108fc829081150290604051600060405180830381858888f193505050501580156141cd573d6000803e3d6000fd5b50806004836040518082805190602001908083835b6020831061420557805182526020820191506020810190506020830392506141e2565b6001836020036101000a0380198251168184511680821785525050505050509050019150509081526020016040518091039020600501600082825403925050819055505050565b60008090505b6004826040518082805190602001908083835b602083106142885780518252602082019150602081019050602083039250614265565b6001836020036101000a0380198251168184511680821785525050505050509050019150509081526020016040518091039020600801805490508110156144c6576004826040518082805190602001908083835b602083106142ff57805182526020820191506020810190506020830392506142dc565b6001836020036101000a0380198251168184511680821785525050505050509050019150509081526020016040518091039020600801818154811061434057fe5b9060005260206000200160009054906101000a900473ffffffffffffffffffffffffffffffffffffffff1673ffffffffffffffffffffffffffffffffffffffff166108fc6004846040518082805190602001908083835b602083106143ba5780518252602082019150602081019050602083039250614397565b6001836020036101000a038019825116818451168082178552505050505050905001915050908152602001604051809103902060090183815481106143fb57fe5b90600052602060002001549081150290604051600060405180830381858888f19350505050158015614431573d6000803e3d6000fd5b5060006004836040518082805190602001908083835b6020831061446a5780518252602082019150602081019050602083039250614447565b6001836020036101000a038019825116818451168082178552505050505050905001915050908152602001604051809103902060090182815481106144ab57fe5b90600052602060002001819055508080600101915050614252565b5050565b80600360008573ffffffffffffffffffffffffffffffffffffffff1673ffffffffffffffffffffffffffffffffffffffff168152602001908152602001600020836040518082805190602001908083835b6020831061453e578051825260208201915060208101905060208303925061451b565b6001836020036101000a038019825116818451168082178552505050505050905001915050908152602001604051809103902081905550505050565b60008060009050600091505b6000600260008773ffffffffffffffffffffffffffffffffffffffff1673ffffffffffffffffffffffffffffffffffffffff16815260200190815260200160002054815481106145d257fe5b90600052602060002090600602016004018054905082101561479957614702846000600260008973ffffffffffffffffffffffffffffffffffffffff1673ffffffffffffffffffffffffffffffffffffffff168152602001908152602001600020548154811061463e57fe5b9060005260206000209060060201600401848154811061465a57fe5b906000526020600020018054600181600116156101000203166002900480601f0160208091040260200160405190810160405280929190818152602001828054600181600116156101000203166002900480156146f85780601f106146cd576101008083540402835291602001916146f8565b820191906000526020600020905b8154815290600101906020018083116146db57829003601f168201915b50505050506148c7565b1561478c57826000600260008873ffffffffffffffffffffffffffffffffffffffff1673ffffffffffffffffffffffffffffffffffffffff168152602001908152602001600020548154811061475457fe5b9060005260206000209060060201600501838154811061477057fe5b9060005260206000200160008282540192505081905550600190505b8180600101925050614586565b806148c0576000600260008773ffffffffffffffffffffffffffffffffffffffff1673ffffffffffffffffffffffffffffffffffffffff16815260200190815260200160002054815481106147ea57fe5b9060005260206000209060060201600401849080600181540180825580915050906001820390600052602060002001600090919290919091509080519060200190614836929190614ccb565b50506000600260008773ffffffffffffffffffffffffffffffffffffffff1673ffffffffffffffffffffffffffffffffffffffff168152602001908152602001600020548154811061488457fe5b90600052602060002090600602016005018390806001815401808255809150509060018203906000526020600020016000909192909190915055505b5050505050565b6000816040516020018082805190602001908083835b6020831061490057805182526020820191506020810190506020830392506148dd565b6001836020036101000a03801982511681845116808217855250505050505090500191505060405160208183030381529060405280519060200120836040516020018082805190602001908083835b60208310614972578051825260208201915060208101905060208303925061494f565b6001836020036101000a0380198251168184511680821785525050505050509050019150506040516020818303038152906040528051906020012014905092915050565b6040518060c00160405280600073ffffffffffffffffffffffffffffffffffffffff16815260200160608152602001606081526020016060815260200160608152602001606081525090565b828054600181600116156101000203166002900490600052602060002090601f016020900481019282601f10614a4357805160ff1916838001178555614a71565b82800160010185558215614a71579182015b82811115614a70578251825591602001919060010190614a55565b5b509050614a7e9190614dcb565b5090565b828054828255906000526020600020908101928215614ad1579160200282015b82811115614ad0578251829080519060200190614ac0929190614a02565b5091602001919060010190614aa2565b5b509050614ade9190614df0565b5090565b828054828255906000526020600020908101928215614b1e579160200282015b82811115614b1d578251825591602001919060010190614b02565b5b509050614b2b9190614dcb565b5090565b604051806101a00160405280606081526020016060815260200160608152602001600073ffffffffffffffffffffffffffffffffffffffff168152602001600081526020016000815260200160008152602001600081526020016060815260200160608152602001600015158152602001600015158152602001614bb1614e1c565b81525090565b828054828255906000526020600020908101928215614c30579160200282015b82811115614c2f5782518260006101000a81548173ffffffffffffffffffffffffffffffffffffffff021916908373ffffffffffffffffffffffffffffffffffffffff16021790555091602001919060010190614bd7565b5b509050614c3d9190614e36565b5090565b828054828255906000526020600020908101928215614cba579160200282015b82811115614cb95782518260006101000a81548173ffffffffffffffffffffffffffffffffffffffff021916908373ffffffffffffffffffffffffffffffffffffffff16021790555091602001919060010190614c61565b5b509050614cc79190614e79565b5090565b828054600181600116156101000203166002900490600052602060002090601f016020900481019282601f10614d0c57805160ff1916838001178555614d3a565b82800160010185558215614d3a579182015b82811115614d39578251825591602001919060010190614d1e565b5b509050614d479190614dcb565b5090565b828054600181600116156101000203166002900490600052602060002090601f016020900481019282601f10614d8c57803560ff1916838001178555614dba565b82800160010185558215614dba579182015b82811115614db9578235825591602001919060010190614d9e565b5b509050614dc79190614dcb565b5090565b614ded91905b80821115614de9576000816000905550600101614dd1565b5090565b90565b614e1991905b80821115614e155760008181614e0c9190614ebc565b50600101614df6565b5090565b90565b604051806040016040528060608152602001606081525090565b614e7691905b80821115614e7257600081816101000a81549073ffffffffffffffffffffffffffffffffffffffff021916905550600101614e3c565b5090565b90565b614eb991905b80821115614eb557600081816101000a81549073ffffffffffffffffffffffffffffffffffffffff021916905550600101614e7f565b5090565b90565b50805460018160011615610100020316600290046000825580601f10614ee25750614f01565b601f016020900490600052602060002090810190614f009190614dcb565b5b5056fe4552524f523a2070726f6a65637420776974682073616d65207469746c6520657869737473a265627a7a723158202f943d3c8a4e7c2d87767d20e6af37d788ffb452f338d091febd43ade931e7b564736f6c63430005100032",
  "source": "pragma solidity >=0.4.21 <0.7.0;\r\nimport \"./User.sol\";\r\n\r\n/*library Console {\r\n  event _TruffleConsoleLog(bool boolean);\r\n  event _TruffleConsoleLog(int num);\r\n  event _TruffleConsoleLog(uint num);\r\n  event _TruffleConsoleLog(string str);\r\n  event _TruffleConsoleLog(bytes32 b32);\r\n  event _TruffleConsoleLog(address addr);\r\n\r\n  event _TruffleConsoleLogNamed(bytes32 label, bool boolean);\r\n  event _TruffleConsoleLogNamed(bytes32 label, int num);\r\n  event _TruffleConsoleLogNamed(bytes32 label, uint num);\r\n  event _TruffleConsoleLogNamed(bytes32 label, string str);\r\n  event _TruffleConsoleLogNamed(bytes32 label, bytes32 b32);\r\n  event _TruffleConsoleLogNamed(bytes32 label, address addr);\r\n\r\n  function log(bool x) public {\r\n    emit _TruffleConsoleLog(x);\r\n  }\r\n\r\n  function log(int x) public {\r\n    emit _TruffleConsoleLog(x);\r\n  }\r\n\r\n  function log(uint x) public {\r\n    emit _TruffleConsoleLog(x);\r\n  }\r\n\r\n  function log(string memory x) public {\r\n    emit _TruffleConsoleLog(x);\r\n  }\r\n\r\n  function log(bytes32 x) public {\r\n    emit _TruffleConsoleLog(x);\r\n  }\r\n\r\n  function log(address x) public {\r\n    emit _TruffleConsoleLog(x);\r\n  }\r\n\r\n  function log(bytes32 x, bool y) public {\r\n    emit _TruffleConsoleLogNamed(x, y);\r\n  }\r\n\r\n  function log(bytes32 x, int y) public {\r\n    emit _TruffleConsoleLogNamed(x, y);\r\n  }\r\n\r\n  function log(bytes32 x, uint y) public {\r\n    emit _TruffleConsoleLogNamed(x, y);\r\n  }\r\n\r\n  function log(bytes32 x, string memory y) public {\r\n    emit _TruffleConsoleLogNamed(x, y);\r\n  }\r\n\r\n  function log(bytes32 x, bytes32 y) public {\r\n    emit _TruffleConsoleLogNamed(x, y);\r\n  }\r\n\r\n  function log(bytes32 x, address y) public {\r\n    emit _TruffleConsoleLogNamed(x, y);\r\n  }\r\n}*/\r\n\r\ncontract Fund is User{\r\n    struct msgboard{\r\n        string[] msg;\r\n        address[] sender;\r\n    }\r\n    struct project{\r\n        string  title;\r\n        string  intro;\r\n        string  topic;\r\n        address payable owner;\r\n        uint  target_money;\r\n        uint  current_money;\r\n        uint  accumulate_money;\r\n        uint  deadline;\r\n        address payable[] sponsors;\r\n        uint[] money_of_sponsors;\r\n        bool stop;\r\n        bool voting_end;\r\n        msgboard board;\r\n    }\r\n    mapping(string=>project) internal title_to_project;\r\n    string[] internal index_to_project;\r\n    //uint internal bonus_for_voting_starter = 1000000;\r\n    // time = 1577808000000+block.number*60*60*24*1000;//15778080000002020/1/1 0:0:0\r\n\r\n    function add_project(string memory _title, string memory _topic, string memory _intro, uint _target_money, uint _deadline) public {\r\n            require(title_to_project[_title].target_money==0,\"ERROR: project with same title exists\");\r\n            require(_target_money>0,\"\");\r\n            if(!user_exist[msg.sender]){\r\n              add_user(\"\", \"\");\r\n            }\r\n            project memory _p;\r\n            _p.title = _title;\r\n            _p.topic = _topic;\r\n            _p.intro = _intro;\r\n            _p.target_money = _target_money;\r\n            _p.deadline = _deadline;\r\n            _p.stop = false;\r\n            _p.voting_end = false;\r\n            user_create_project(msg.sender, _title);\r\n            title_to_project[_title] = _p;\r\n            index_to_project.push(_title);\r\n        //Console.log(title_to_project[_title].view_title());\r\n    }\r\n    function recieve_value_to_project(string memory _title) public payable {\r\n        require(!title_to_project[_title].stop,\"This project stop receive money!\");\r\n        if(!user_exist[msg.sender]){\r\n          add_user(\"\", \"\");\r\n        }\r\n        title_to_project[_title].current_money += msg.value;\r\n        title_to_project[_title].accumulate_money += msg.value;\r\n        uint i;\r\n        uint _i;\r\n        bool found = false;\r\n        for(i = 0 ; i<title_to_project[_title].sponsors.length ; i++){\r\n          if(msg.sender==title_to_project[_title].sponsors[i]){\r\n            found = true;\r\n            _i = i;\r\n          }\r\n        }\r\n        if(!found){\r\n          title_to_project[_title].sponsors.push(msg.sender);\r\n          title_to_project[_title].money_of_sponsors.push(msg.value);\r\n          _i = title_to_project[_title].sponsors.length-1;\r\n        }\r\n        if(title_to_project[_title].accumulate_money >= title_to_project[_title].target_money){//recieve to much money, send back, start voting\r\n            title_to_project[_title].current_money -= title_to_project[_title].accumulate_money-title_to_project[_title].target_money;\r\n            title_to_project[_title].money_of_sponsors[_i] -= title_to_project[_title].accumulate_money-title_to_project[_title].target_money;\r\n            address payable _sender = msg.sender;\r\n            _sender.transfer(title_to_project[_title].accumulate_money-title_to_project[_title].target_money);\r\n            title_to_project[_title].accumulate_money = title_to_project[_title].target_money;\r\n            title_to_project[_title].stop = true;\r\n        }\r\n        user_send_money_to_project(msg.sender,_title,\r\n          title_to_project[_title].money_of_sponsors[_i]);\r\n    }\r\n    function transfer_value_to_project_owner(string memory _title, uint _money) internal{\r\n        //require(title_to_project[_title].current_money >= _money,\"error!\"); //0609\r\n        require(address(this).balance >= _money,\"error!\");\r\n        title_to_project[_title].owner.transfer(_money);\r\n        title_to_project[_title].current_money -= _money;\r\n    }/*\r\n    function view_project(string memory _title) public view returns(string memory,string memory,uint,uint,uint,uint,address){\r\n        return(\r\n          title_to_project[_title].intro,\r\n          title_to_project[_title].topic,\r\n          title_to_project[_title].current_money,\r\n          title_to_project[_title].accumulate_money,\r\n          title_to_project[_title].target_money,\r\n          title_to_project[_title].deadline,\r\n          title_to_project[_title].owner\r\n        );\r\n\r\n    }*/\r\n    /*\r\n    function view_topic (string memory _title) public view returns(string memory){\r\n        return title_to_project[_title].topic;\r\n    }\r\n    function view_intro (string memory _title) public view returns(string memory){\r\n        return title_to_project[_title].intro;\r\n    }\r\n    function view_cur_money (string memory _title) public view returns(uint){\r\n        return title_to_project[_title].current_money;\r\n    }\r\n    function view_tar_money (string memory _title) public view returns(uint){\r\n        return title_to_project[_title].target_money;\r\n    }*/\r\n    function view_project_list_length() public view returns (uint){\r\n        return index_to_project.length;\r\n    }\r\n    function view_project_list(uint i) public view returns (string memory,string memory,string memory,uint,uint,uint,uint){\r\n        return (\r\n                title_to_project[index_to_project[i]].title,\r\n                title_to_project[index_to_project[i]].intro,\r\n                title_to_project[index_to_project[i]].topic,\r\n                title_to_project[index_to_project[i]].current_money,\r\n                title_to_project[index_to_project[i]].accumulate_money,\r\n                title_to_project[index_to_project[i]].target_money,\r\n                title_to_project[index_to_project[i]].deadline\r\n              );\r\n    }\r\n    function comment_on_board(string memory _title, string memory _msg) public {\r\n        title_to_project[_title].board.msg.push(_msg);\r\n        title_to_project[_title].board.sender.push(msg.sender);\r\n    }\r\n    function view_comment_length(string memory _title) public view returns(uint){\r\n        return title_to_project[_title].board.msg.length;\r\n    }\r\n    function view_comment(string memory _title, uint i) public view returns(string memory, address){\r\n        return(title_to_project[_title].board.msg[i], title_to_project[_title].board.sender[i]);\r\n    }\r\n    /*\r\n    function view_project_title(uint i) public view returns(string memory){\r\n        return title_to_project[index_to_project[i]].title;\r\n    }\r\n    function view_project_intro(uint i) public view returns(string memory){\r\n        return title_to_project[index_to_project[i]].intro;\r\n    }\r\n    function view_project_topic(uint i) public view returns(string memory){\r\n        return title_to_project[index_to_project[i]].topic;\r\n    }\r\n    \r\n    function view_project_accumulate_money(uint i) public view returns(uint){\r\n        return title_to_project[index_to_project[i]].accumulate_money;\r\n    }\r\n    function view_project_target_money(uint i) public view returns(uint){\r\n        return title_to_project[index_to_project[i]].target_money;\r\n    }\r\n    function view_project_deadline(uint i) public view returns(uint){\r\n        return title_to_project[index_to_project[i]].deadline;\r\n    }\r\n    function view_project_owner(uint i) public view returns(address){\r\n        return title_to_project[index_to_project[i]].owner;\r\n    }*/\r\n    function view_project_current_money(string memory _title) public view returns(uint){\r\n        return title_to_project[_title].current_money;\r\n    }\r\n    function view_project_stop(uint i) public view returns(bool){\r\n        return title_to_project[index_to_project[i]].stop;\r\n    }\r\n    /*function view_project_voting_end(uint i) public view returns(bool){\r\n        return title_to_project[index_to_project[i]].voting_end;\r\n    }*/\r\n    function view_project_voting_end(string memory _title) public view returns(bool){\r\n        return title_to_project[_title].voting_end;\r\n    }\r\n    function pay_back_money(string memory _title) private {\r\n      uint i;\r\n      for(i = 0 ; i < title_to_project[_title].sponsors.length ; i++){\r\n        title_to_project[_title].sponsors[i].transfer(title_to_project[_title].money_of_sponsors[i]/**\r\n        (title_to_project[index_to_project[i]].current_money/title_to_project[index_to_project[i]].accumulate_money*/);\r\n        title_to_project[_title].money_of_sponsors[i] = 0;\r\n      }\r\n    }\r\n    function start_voting(string memory _title) public{\r\n      // require(title_to_project[_title].deadline < 1577808000000+block.number*60*60*24*1000,\"error start voting\");\r\n      //msg.sender.transfer(1000000);//send bonus to voting starter\r\n      uint i;\r\n      for(i = 0 ; i < title_to_project[_title].sponsors.length ; i++){\r\n          user_start_voting(title_to_project[_title].sponsors[i],_title);\r\n      }\r\n      title_to_project[_title].deadline += 5*60*60*24;//voting deadline;\r\n    }\r\n    function stop_voting(string memory _title) public{\r\n      // require(title_to_project[_title].deadline < 1577808000000+block.number*60*60*24*1000,\"Error stop voting\");\r\n      // require(title_to_project[_title].voting_end == false,\"Error voting ended\");\r\n      // msg.sender.transfer(1000000);//send bonus to voting stoper\r\n      //check voting result\r\n      uint total = 0;\r\n      uint agree = 0;\r\n      uint disagree = 0;\r\n      uint user_state = 0;\r\n      uint i;\r\n      for(i = 0 ; i < title_to_project[_title].sponsors.length ; i++){\r\n          if(project_voting[title_to_project[_title].sponsors[i]][_title]==2){//agree\r\n              agree += title_to_project[_title].money_of_sponsors[i];\r\n              total += title_to_project[_title].money_of_sponsors[i];\r\n          }\r\n          else if(project_voting[title_to_project[_title].sponsors[i]][_title]==3){//disagree\r\n              disagree += title_to_project[_title].money_of_sponsors[i];\r\n              total += title_to_project[_title].money_of_sponsors[i];\r\n          }\r\n      }\r\n      if(agree>disagree && total>(title_to_project[_title].sponsors.length/4)){//threshold\r\n        transfer_value_to_project_owner(_title,title_to_project[_title].target_money-2*1000000);\r\n        user_state = 4;\r\n      }\r\n      else{\r\n        pay_back_money(_title);\r\n        user_state = 5;\r\n      }\r\n      //change users' voting state\r\n      for(i = 0 ; i < title_to_project[_title].sponsors.length ; i++){\r\n        user_stop_voting(title_to_project[_title].sponsors[i],_title, user_state);//voting success\r\n      }\r\n      //TODO multistage: For now, it's the end of a funding project.\r\n\r\n      //title_to_project[_title].deadline += 5*60*60*24*1000;\r\n      title_to_project[_title].voting_end = true;\r\n      title_to_project[_title].stop = true;\r\n    }\r\n////////0527}\r\n    function start_voting_or_not(string memory _title) public view returns(bool){\r\n        if(project_voting[title_to_project[_title].sponsors[0]][_title] != 0){\r\n            return true;\r\n        }\r\n        else{\r\n            return false;\r\n        }\r\n    }\r\n}",
  "sourcePath": "/home/benjamin//dapp-react/contracts/Fund.sol",
  "compiler": {
    "name": "solc",
    "version": "0.5.16+commit.9c3226ce.Emscripten.clang"
  },
  "schemaVersion": "3.1.0",
  "updatedAt": "2020-06-09T10:34:55.840Z",
  "networkType": "ethereum",
  "devdoc": {
    "methods": {}
  },
  "userdoc": {
    "methods": {
      "add_user(string,string)": {
        "notice": "//////external function"
      },
      "start_voting_or_not(string)": {
        "notice": "/////0527}"
      }
    }
  }
}