{
  "contractName": "User",
  "abi": [
    {
      "constant": false,
      "inputs": [
        {
          "internalType": "string",
          "name": "_nickname",
          "type": "string"
        },
        {
          "internalType": "string",
          "name": "_intro",
          "type": "string"
        }
      ],
      "name": "add_user",
      "outputs": [],
      "payable": false,
      "stateMutability": "nonpayable",
      "type": "function"
    },
    {
      "constant": true,
      "inputs": [
        {
          "internalType": "address",
          "name": "_address",
          "type": "address"
        }
      ],
      "name": "view_user_exist_or_not",
      "outputs": [
        {
          "internalType": "bool",
          "name": "",
          "type": "bool"
        }
      ],
      "payable": false,
      "stateMutability": "view",
      "type": "function"
    },
    {
      "constant": false,
      "inputs": [
        {
          "internalType": "string",
          "name": "_title",
          "type": "string"
        },
        {
          "internalType": "bool",
          "name": "agree",
          "type": "bool"
        }
      ],
      "name": "user_voting",
      "outputs": [],
      "payable": false,
      "stateMutability": "nonpayable",
      "type": "function"
    },
    {
      "constant": false,
      "inputs": [
        {
          "internalType": "string",
          "name": "_intro",
          "type": "string"
        }
      ],
      "name": "user_change_intro",
      "outputs": [],
      "payable": false,
      "stateMutability": "nonpayable",
      "type": "function"
    },
    {
      "constant": true,
      "inputs": [
        {
          "internalType": "address",
          "name": "_address",
          "type": "address"
        },
        {
          "internalType": "string",
          "name": "_title",
          "type": "string"
        }
      ],
      "name": "view_user_voting_state",
      "outputs": [
        {
          "internalType": "uint256",
          "name": "",
          "type": "uint256"
        }
      ],
      "payable": false,
      "stateMutability": "view",
      "type": "function"
    }
  ],
  "bytecode": "0x608060405234801561001057600080fd5b50610b74806100206000396000f3fe608060405234801561001057600080fd5b50600436106100575760003560e01c806328457ec51461005c5780632d1879b4146100b8578063400462fa1461016557806382c1672a146102b7578063cfe31d8314610330575b600080fd5b61009e6004803603602081101561007257600080fd5b81019080803573ffffffffffffffffffffffffffffffffffffffff1690602001909291905050506103b5565b604051808215151515815260200191505060405180910390f35b61014f600480360360408110156100ce57600080fd5b81019080803573ffffffffffffffffffffffffffffffffffffffff1690602001909291908035906020019064010000000081111561010b57600080fd5b82018360208201111561011d57600080fd5b8035906020019184600183028401116401000000008311171561013f57600080fd5b909192939192939050505061040b565b6040518082815260200191505060405180910390f35b6102b56004803603604081101561017b57600080fd5b810190808035906020019064010000000081111561019857600080fd5b8201836020820111156101aa57600080fd5b803590602001918460018302840111640100000000831117156101cc57600080fd5b91908080601f016020809104026020016040519081016040528093929190818152602001838380828437600081840152601f19601f8201169050808301925050505050505091929192908035906020019064010000000081111561022f57600080fd5b82018360208201111561024157600080fd5b8035906020019184600183028401116401000000008311171561026357600080fd5b91908080601f016020809104026020016040519081016040528093929190818152602001838380828437600081840152601f19601f82011690508083019250505050505050919291929050505061047b565b005b61032e600480360360208110156102cd57600080fd5b81019080803590602001906401000000008111156102ea57600080fd5b8201836020820111156102fc57600080fd5b8035906020019184600183028401116401000000008311171561031e57600080fd5b909192939192939050505061067e565b005b6103b36004803603604081101561034657600080fd5b810190808035906020019064010000000081111561036357600080fd5b82018360208201111561037557600080fd5b8035906020019184600183028401116401000000008311171561039757600080fd5b90919293919293908035151590602001909291905050506106ef565b005b6000600160008373ffffffffffffffffffffffffffffffffffffffff1673ffffffffffffffffffffffffffffffffffffffff16815260200190815260200160002060009054906101000a900460ff169050919050565b6000600360008573ffffffffffffffffffffffffffffffffffffffff1673ffffffffffffffffffffffffffffffffffffffff168152602001908152602001600020838360405180838380828437808301925050509250505090815260200160405180910390205490509392505050565b6104836108ad565b33816000019073ffffffffffffffffffffffffffffffffffffffff16908173ffffffffffffffffffffffffffffffffffffffff16815250508281602001819052508181604001819052506000819080600181540180825580915050906001820390600052602060002090600602016000909192909190915060008201518160000160006101000a81548173ffffffffffffffffffffffffffffffffffffffff021916908373ffffffffffffffffffffffffffffffffffffffff160217905550602082015181600101908051906020019061055e9291906108f9565b50604082015181600201908051906020019061057b9291906108f9565b506060820151816003019080519060200190610598929190610979565b5060808201518160040190805190602001906105b5929190610979565b5060a08201518160050190805190602001906105d29291906109d9565b50505050600160008054905003600260003373ffffffffffffffffffffffffffffffffffffffff1673ffffffffffffffffffffffffffffffffffffffff1681526020019081526020016000208190555060018060003373ffffffffffffffffffffffffffffffffffffffff1673ffffffffffffffffffffffffffffffffffffffff16815260200190815260200160002060006101000a81548160ff021916908315150217905550505050565b81816000600260003373ffffffffffffffffffffffffffffffffffffffff1673ffffffffffffffffffffffffffffffffffffffff16815260200190815260200160002054815481106106cc57fe5b906000526020600020906006020160020191906106ea929190610a26565b505050565b6001600360003373ffffffffffffffffffffffffffffffffffffffff1673ffffffffffffffffffffffffffffffffffffffff1681526020019081526020016000208484604051808383808284378083019250505092505050908152602001604051809103902054146107c9576040517f08c379a00000000000000000000000000000000000000000000000000000000081526004018080602001828103825260158152602001807f4572726f723a20616c726561647920766f74656421000000000000000000000081525060200191505060405180910390fd5b801561083e576002600360003373ffffffffffffffffffffffffffffffffffffffff1673ffffffffffffffffffffffffffffffffffffffff16815260200190815260200160002084846040518083838082843780830192505050925050509081526020016040518091039020819055506108a8565b60038060003373ffffffffffffffffffffffffffffffffffffffff1673ffffffffffffffffffffffffffffffffffffffff16815260200190815260200160002084846040518083838082843780830192505050925050509081526020016040518091039020819055505b505050565b6040518060c00160405280600073ffffffffffffffffffffffffffffffffffffffff16815260200160608152602001606081526020016060815260200160608152602001606081525090565b828054600181600116156101000203166002900490600052602060002090601f016020900481019282601f1061093a57805160ff1916838001178555610968565b82800160010185558215610968579182015b8281111561096757825182559160200191906001019061094c565b5b5090506109759190610aa6565b5090565b8280548282559060005260206000209081019282156109c8579160200282015b828111156109c75782518290805190602001906109b79291906108f9565b5091602001919060010190610999565b5b5090506109d59190610acb565b5090565b828054828255906000526020600020908101928215610a15579160200282015b82811115610a145782518255916020019190600101906109f9565b5b509050610a229190610aa6565b5090565b828054600181600116156101000203166002900490600052602060002090601f016020900481019282601f10610a6757803560ff1916838001178555610a95565b82800160010185558215610a95579182015b82811115610a94578235825591602001919060010190610a79565b5b509050610aa29190610aa6565b5090565b610ac891905b80821115610ac4576000816000905550600101610aac565b5090565b90565b610af491905b80821115610af05760008181610ae79190610af7565b50600101610ad1565b5090565b90565b50805460018160011615610100020316600290046000825580601f10610b1d5750610b3c565b601f016020900490600052602060002090810190610b3b9190610aa6565b5b5056fea265627a7a72315820aab2b35a96af919cc0bf358019dd55124b0ae4ee6c7954a98c4e2640e09a1a8764736f6c63430005100032",
  "source": "pragma solidity >=0.4.21 <0.7.0;\r\ncontract User{\r\n\tstruct account{\r\n\t\taddress user_address;\r\n\t\tstring nickname;\r\n\t\tstring intro;\r\n\t\tstring[] created_project;\r\n\t\tstring[] sended_project;\r\n\t\tuint[] sended_money;\r\n\t}\r\n\r\n\taccount[] internal users;\r\n\tmapping(address=>bool) internal user_exist;\r\n\tmapping(address=>uint) internal address_to_account_index;\r\n\tmapping(address=>mapping(string=>uint)) internal project_voting; //0:haven't started/stop 1:start 2:agree 3:disagree\r\n\t//mapping(address=>mapping(string=>uint)) internal sended_project_index;\r\n\r\n\t/////////external function\r\n\r\n\tfunction add_user(string memory _nickname, string memory _intro) public {\r\n\t\taccount memory _a;\r\n\t\t_a.user_address = msg.sender;\r\n\t\t_a.nickname = _nickname;\r\n\t\t_a.intro = _intro;\r\n\t\tusers.push(_a);\r\n\t\taddress_to_account_index[msg.sender] = users.length-1;\r\n\t\tuser_exist[msg.sender] = true;\r\n\t}\r\n\tfunction view_user_exist_or_not(address _address) external view returns(bool){\r\n\t\treturn user_exist[_address];\r\n\t}\r\n\t/*function view_user_intro(address _address)  external view returns(string memory){\r\n\t\treturn users[address_to_account_index[_address]].intro;\r\n\t}\r\n\tfunction view_user_created_project_length(address _address)  external view returns(uint){\r\n\t\treturn users[address_to_account_index[_address]].created_project.length;\r\n\t}\r\n\tfunction view_user_created_project(address _address,uint i)  external view returns(string memory){\r\n\t\treturn users[address_to_account_index[_address]].created_project[i];\r\n\t}\r\n\tfunction view_user_sended_project_length(address _address)  external view returns(uint){\r\n\t\treturn users[address_to_account_index[_address]].sended_project.length;\r\n\t}\r\n\tfunction view_user_sended_project(address _address,uint i)  external view returns(string memory){\r\n\t\treturn users[address_to_account_index[_address]].sended_project[i];\r\n\t}\r\n\tfunction view_user_sended_money_length(address _address)  external view returns(uint){\r\n\t\treturn users[address_to_account_index[_address]].sended_money.length;\r\n\t}\r\n\tfunction view_user_sended_money(address _address,uint i)  external view returns(uint){\r\n\t\treturn users[address_to_account_index[_address]].sended_money[i];\r\n\t}*/\r\n\tfunction user_voting( string calldata _title, bool agree) external{\r\n\t\trequire(project_voting[msg.sender][_title]==1,\"Error: already voted!\");\r\n\t\t//require(1577808000+block.number*60*60*24*1<,\"\")\r\n\t\tif(agree){\r\n\t\t\tproject_voting[msg.sender][_title] = 2;//agree\r\n\t\t}\r\n\t\telse{\r\n\t\t\tproject_voting[msg.sender][_title] = 3;//disagree\r\n\t\t}\r\n\t}\r\n\t/*function view_user_started_voting_or_not(string calldata _title) external view returns(uint){\r\n\t\treturn project_voting[msg.sender][_title];\r\n\t}*/\r\n\tfunction user_change_intro(string calldata _intro) external{\r\n        users[address_to_account_index[msg.sender]].intro = _intro;\r\n    }\r\n\r\n\tfunction view_user_voting_state(address _address, string calldata _title) external view returns(uint){\r\n\t\treturn project_voting[_address][_title];\r\n\t}\r\n\r\n\t////////internal function\r\n\r\n\tfunction user_send_money_to_project(address _address, string memory _title, uint _value) internal{\r\n\t\t/*string memory temp = users[address_to_account_index[_address]].sended_project[sended_project_index[_address][_title]];\r\n\t\tif(!compareStrings(temp, _title)){\r\n\t\t\tusers[address_to_account_index[_address]].sended_project.push(_title);\r\n\t\t\tusers[address_to_account_index[_address]].sended_money.push(_value);\r\n\t\t\tsended_project_index[_address][_title] = users[address_to_account_index[_address]].sended_project.length-1;\r\n\t\t}\r\n\t\telse{\r\n\t\t\tusers[address_to_account_index[_address]].sended_money[sended_project_index[_address][_title]] += _value;\r\n\t\t}*/\r\n\t\tuint i;\r\n\t\tbool found = false;\r\n\t\tfor(i = 0 ; i<users[address_to_account_index[_address]].sended_project.length; i++){\r\n\t\t\tif(compareStrings(_title,users[address_to_account_index[_address]].sended_project[i])){\r\n\t\t\t\tusers[address_to_account_index[_address]].sended_money[i] += _value;\r\n\t\t\t\tfound = true;\r\n\t\t\t}\r\n\t\t}\r\n\t\tif(!found){\r\n\t\t\tusers[address_to_account_index[_address]].sended_project.push(_title);\r\n\t\t\tusers[address_to_account_index[_address]].sended_money.push(_value);\r\n\t\t}\r\n\t}\r\n\r\n\tfunction user_create_project(address _address, string memory _title) internal{\r\n\t\tusers[address_to_account_index[_address]].created_project.push(_title);\r\n\t}\r\n\r\n\tfunction user_start_voting(address _address, string memory _title) internal{\r\n\t\trequire(project_voting[_address][_title]==0,\"Error: already started\");\r\n\t\tproject_voting[_address][_title] = 1;\r\n\t}\r\n\r\n\tfunction user_stop_voting(address _address, string memory _title, uint value) internal{\r\n\t\tproject_voting[_address][_title] = value;\r\n\t}\r\n\r\n\tfunction compareStrings (string memory a, string memory b) internal pure returns(bool) {\r\n  \t\treturn (keccak256(abi.encodePacked((a))) == keccak256(abi.encodePacked((b))) );\r\n    }\r\n}",
  "sourcePath": "/home/benjamin/下載/dapp-react/contracts/User.sol",
  "compiler": {
    "name": "solc",
    "version": "0.5.16+commit.9c3226ce.Emscripten.clang"
  },
  "schemaVersion": "3.1.0",
  "updatedAt": "2020-06-08T17:12:42.920Z",
  "devdoc": {
    "methods": {}
  },
  "userdoc": {
    "methods": {
      "add_user(string,string)": {
        "notice": "//////external function"
      }
    }
  }
}